:080000000C9451000C94000067
:100008000C9400000C9400000C9400000C94000068
:100018000C9400000C9400000C9400000C94000058
:100028000C9400000C9400000C9400000C94000048
:100038000C9400000C9400000C9400000C94000038
:100048000C9400000C9400000C940000706F742055
:100058003D2000202876290074656D70203D200021
:1000680020284329000001002D4E414E00494E46EC
:10007800000080C0070060025400050067025B00B2
:1000880008006C02600005007402680001008D021F
:100098006E00020091027A000000F894EE27ECBB93
:1000A800F1E0FBBFEBBFE5BF8DE0A2E0BB27ED931E
:1000B8008A95E9F780E098E0A0E6ED930197E9F7E3
:1000C800ECE7F0E085919591009761F0A591B591E5
:1000D80005901590BF01F00105900D920197E1F789
:1000E800FB01F0CFEFE5EDBFE8E0EEBFC0E6D2E000
:1000F8000C948C00AA93E881E06EE7B983E08A95B6
:10010800F1F7369A349BFECF349AE5B10C9472021B
:10011800E0E0EABBEBBBE7BBE8BBE4BBE5BBE1BBAC
:10012800E2BBE3BFE2BFECBFEFBDEEBDEDBDECBD92
:10013800E7BDE6BDEBBDEABDE9BDE8BDE2BDE5BD95
:10014800E4BDE3BDE9BFE5BFE4BFEAB9E0E8E8B96B
:10015800E0EEE7B9E1EAE6B9E0E0E0BFEDB9E6BF15
:10016800A0E10E944702A0E0C5DF4E2E5524F2010F
:10017800A9E7B2E00E94C902A0917902B0917A027F
:1001880080917B0290917C02E0E0F0E068EC72E400
:100198000E946704E0937902F0937A0260937B02ED
:1001A80070937C020E94ED04E2E0EA93ADE7B2E0CE
:1001B8000E941B01A1E09EDF6E2E7724F301A3E8C5
:1001C800B2E00E94C902E0918302F091840260913A
:1001D8008502709186020E94ED04E2E0EA93A7E8A6
:1001E800B2E00E941B01E0E0EA93A0E00E9408024E
:1001F800A0E6B2E00E943602ADE7B2E00E94360205
:10020800A7E6B2E00E943602E0E0EA93A1E00E948D
:100218000802ACE6B2E00E943602A7E8B2E00E940B
:100228003602A4E7B2E00E9436029DCFFFCFBA9310
:10023800AA932497E0E0E883E983EA83EFE3EB837A
:100248001A930A93EB85FC85EF3FAFEFFA0739F471
:100258000E94D002A0E7B0E00E94BC02B1C0EF3F0C
:10026800AFE7FA0739F40E94D002A1E7B0E00E9494
:10027800BC02A6C0AC85AA2362F4E985FA856B8521
:100288007C850E9423030E94D5020E94DA02EDE2D7
:10029800EC93A885A73010F0E6E0E8871885E12FF1
:1002A8001150E03039F00E94E1020E94E6020E94FB
:1002B800ED02F5CF0E94F2020E94C9030E94D50206
:1002C80010E0E0E0F0E060E87FE30E94ED020E94C9
:1002D800F2020E94AC0488F00E94E1020E94FB0234
:1002E8000E94ED021F5F173238F00E94D002A5E786
:1002F800B0E00E94BC0264C0EACF103029F40E942A
:10030800DA02E0E3EC932FC0E12F1150E03059F10D
:100318000E94E1020E94E602A0E0B0E080E09FE3D4
:100328000E94C903DF01CB010E94A5020E94ED02D1
:100338000E94F2020E9467040E9456030E2F0E9438
:10034800DA02E02FE05DEC93E02FF0E00E94E1029A
:100358000E94D4040E948F030E9419040E94020381
:100368000E940703D1CFE885E03031F10E94DA021C
:10037800EEE2EC93E885E150E887EF5FE9F00E9450
:1003880002030E94FB020E94D502E985FA856B856B
:100398007C850E9456030E2F0E94DA02E02FE05D52
:1003A800EC93E02FF0E00E9402030E94D4040E9424
:1003B8008F030E940703DECFAE81BF81E0E0EC939C
:1003C800198108812D960895AA93E5B3EF70AE2F91
:1003D800E881E07FEA2BE5BB82E08A95F1F7AA9AEB
:1003E80082E08A95F1F7AA9882E08A95F1F776C0BB
:1003F800AA93A881E9DFE881E295E883A881E4DF90
:1004080081E18A95F1F76AC0AA93E881F0E0EF5696
:10041800FD4FE081A981AE0FEBDF9980888022969D
:100428000895A2E00E940C03ACE0E2DFA1E00E9484
:100438000C03E0E08E2E9E2E0895AA93A881AA3080
:1004480011F09B1448F0E0E0EA938394A82DDCDFD8
:10045800A881AA3009F442C09394A89AA881C8DF59
:10046800A8983CC0BA93AA931A93A981BA81ED912E
:10047800A983BA831E2FE03019F0A12FDEDFF5CF54
:10048800188123960895AA93E4B3E06FE4BBA29A77
:10049800A09AA19AAA98A898A998B880E881E05843
:1004A800E0939302E881E054E0939402A4E1B0E081
:1004B8000E9419030E9412030E9412030E94120351
:1004C800A0E282DF81E28A95F1F7A8E291DFA4E059
:1004D8008FDFA5E88DDFA6E08BDFA3DF21960895E7
:1004E8000E94F2047B816A81F981E88177FB770FAA
:1004F80067FD7160972F9E5781F078F0983190F4DE
:10050800AA27BB27882708948795B795A7959A9512
:10051800D1F7EA23FB23682305C0E8947727EE2761
:10052800FF2766276F77769508F4606877F9A991B1
:10053800B99189919991EA17FB076807790797FBA1
:1005480008950E94F2040E94E3040E9474020E942B
:10055800E80419F40E94DE0409C0E6F70E94DE04EC
:10056800A0E0B0E080E89FE30E94C20324960895CB
:10057800BA93AA93E991F991A991B991CD010590FE
:100588000D920020E1F7FC0108950E94D4040E9416
:100598008F030E94D9040895EE81FF81FA93EA93AC
:1005A8000895E987FA876B877C870895AE81BF81B4
:1005B8001196AE83BF8311970895AA81BB818C8160
:1005C8009D810895EDECFCEC6CEC7DE30E94190430
:1005D8000895EA83FB836C837D830895EA81FB8118
:1005E8006C817D81A985BA858B859C850895E0E01D
:1005F800F0E060E271E40E9419040895A985BA85C3
:100608008B859C8508950E94F7040E94C203C9CF78
:100618000E94FC01A3E0B0E00C941903A0E30E943F
:10062800E80181E28A95F1F70895109639F08AEF8A
:1006380090E00197F1F7A8951197C9F708953097B9
:100648006040704009F070580895552342F45038BE
:1006580011F4E0FF04C03196691F791F6BF050E870
:10066800572711F45F93CFC05F3F31F0660F000C3E
:1006780057956795752F08955F9300200AF0CFC0AE
:10068800C8C050E8192E1522880F991F9527550FB5
:10069800879550E8072E0522660F771F7527550F97
:1006A80067950895689401C0E8945F93F2DF703805
:1006B80018F07F3F08F4A7C056E1571BAAF45195DC
:1006C80058300EF4593030F0EFEFFFEF6FEF7FE75F
:1006D80077F91AC077275523B9F0EE0FFF1F661F69
:1006E800771F5A95D1F710C07727583028F0EF2F89
:1006F800F62F672F5850F9CF552331F07695679527
:10070800F795E7955A95D1F700200AF441D15F9102
:100718000895689401C0E894309760407040B1F043
:10072800002426F0772312F4009432D1172E7EE1AC
:10073800112032F07A95EE0FFF1F661F111CF9CFBA
:10074800EF2FF62F612D5F938ADF5F9108954F9306
:10075800AF01FD01DA01AB01BC01CA01402D012C3A
:10076800142E4F910895EA0FFB1F681F0895E09516
:10077800F0956095EF5FFF4F6F4F08955F9381DFAE
:10078800903871F150E8152604C05F937ADF9038ED
:1007980039F1703821F1572F591B2BF112F4D7DF9B
:1007A800FACF583118F0AA27BB278827583028F0E5
:1007B800AB2FB82F88275850F9CF552329F08695A5
:1007C800B795A7955A95D9F7502D512572F0CBDFDB
:1007D80038F46795F795E795739513F420C0B7DF5C
:1007E8003EDF5F910895D8F7FBCFEA1BFB0B680B40
:1007F80051F010F40094BBDF662392F3EE0FFF1F55
:10080800661F7A95CBF7EE27FF27662777275F9134
:100818000895EFEFFFEF6FE77FEF5F910895EFEF38
:10082800FFEF6FE77FE75F9108955F932ADF7038E6
:1008380051F3903841F301240894791F23F41CF3F1
:1008480000203AF3ECCF0F921F932F933F934F93CF
:10085800112722279927689FA0018F9F302D410DCE
:10086800591F6B9F300D411D591F8E9F27D0BF9F69
:1008780025D06A9F23D0BE9F1DD0AF9F1BD0AE9FAF
:10088800110D291F391F491F591FE32FF42F652FF9
:10089800522F4F913F912F911F910F9066232AF06D
:1008A800550FEE1FFF1F661F02C073954BF2CDDE7A
:1008B8005F910895100D211D391F02C0200D311DB3
:1008C800491F591F08955F93DCDE703821F4112009
:1008D8000AF49FCFA4CF903809F495CF0124089447
:1008E800970B1BF4D4F30020F3CF792F1F932F938A
:1008F8003F934F9311241127222733274427552745
:1009080090E2AE17BF078607410730F0AE1BBF0B5A
:10091800860B410B089401C08894551F221F331F72
:10092800111CAA1FBB1F881F441F9A9551F7F90174
:10093800612D4F913F912F911F91662332F0550FF2
:10094800EE1FFF1F661F7A9543F27FDE5F910895C1
:1009580099239AF0772342F0971748F029F4AE17B5
:10096800BF07860720F031F09894889408959894EA
:10097800089408951894889408957723C2F79717D0
:1009880098F3A9F7EA17FB07680788F399F3ECCF00
:10099800F09560957095E195FF4F6F4F7F4F0895E3
:1009A8006F2F660F660B762F0895ED93FD936D9369
:1009B8007C930895E881F9816A817B810895A881F3
:1009C800B9818A819B810895E883F9836A837B834F
:1009D80008957A936A93FA93EA9308959A938A9377
:1009E800BA93AA930895182E862F612D192E972F42
:1009F800712D1B2EBF2FF12D1A2EAE2FE12D08952C
:00000001FF
