:020000000C945E
:100002002A000C9400000C9400000C9400000C9444
:1000120000000C9400000C9400000C9400000C945E
:1000220000000C9400000C9400000C9400000C944E
:1000320000000C9400000C9400000C9400000C943E
:1000420000000C9400000C9400000C9400000C942E
:100052000000F894EE27ECBBF1E0FBBFEBBFE5BF7D
:100062008DE0A2E0BB27ED938A95E9F780E098E066
:10007200A0E6ED930197E9F7EFE5EDBFE8E0EEBF0B
:10008200C0E6D2E00C948500BA93AA93E881F98184
:10009200309711F4E0EC35C0E130A0E0FA0711F43A
:1000A200E9EF2FC0E230A0E0FA0711F4E4EA29C038
:1000B200E330A0E0FA0711F4E0EB23C0E430A0E063
:1000C200FA0711F4E9E91DC0E530A0E0FA0711F4DE
:1000D200E2E917C0E630A0E0FA0711F4E2E811C045
:1000E200E730A0E0FA0711F4E8EF0BC0E830A0E037
:1000F200FA0711F4E0E805C0E930A0E0FA0711F4CC
:10010200E0E9E5BB22960895E0E0EABBEBBBE7BB82
:10011200E8BBE4BBE5BBE1BBE2BBE3BFE2BFECBFD4
:10012200EFBDEEBDEDBDECBDE7BDE6BDEBBDEABD8D
:10013200E9BDE8BDE2BDE5BDE4BDE3BDE9BFE5BFA4
:10014200E4BFEAB9E0E8E8B9E0E0E0BFE6B9EDB95A
:10015200E6BFEFEFE4BBE3E0E1BBE0E0EABB44244F
:100162005524CC24DD24C89902C0C99B01C010C00B
:10017200C89902C0C99B01C00BC0E1E0AED00E9489
:10018200C001B2D0E2E0A9D00E94C501ADD0F0CF4B
:10019200C89B02C0C99B01C02EC0EFEFFFEFAAD0DF
:1001A200E9E0F0E0E615F70534F1ACD0E9E0F0E083
:1001B200E815F905E4F0C89B02C0C99B01C017C04D
:1001C200AA24BB24A6D02CF4A9D0F50131965F0154
:1001D200F9CFF20131962F01E4E6F0E0E415F505DE
:1001E20011F444245524F40131964F01DFCFF30179
:1001F20031963F01D5CFC89902C0C99901C02DC01F
:10020200E1E0F0E077D000246014700434F17AD099
:10021200002480149004ECF0C89902C0C99901C06E
:1002220018C0AA24BB2475D02CF478D0F5013196DD
:100232005F01F9CFF20131972F01EFEFFFEFE415E4
:10024200F50519F4E3E6F0E02F01F40131974F01CF
:10025200DFCFF30131973F01D6CFC89B02C0C999C6
:1002620001C039C0D201EAE0F0E00E94C0013F01C2
:10027200E9E0F0E0E615F70574F144D0E9E0F0E0DA
:10028200E815F90524F1C89B02C0C99901C01FC035
:10029200AA24BB243ED02CF441D0F50131965F0153
:1002A200F9CFF20132962F01E4E6F0E0E415F5050C
:1002B20011F444245524E5E6F0E0E415F50519F4BB
:1002C200E1E0F0E02F01F40132964F01D7CFF301C4
:1002D20031963F01CDCF47CFFFCFE2BBD601A40D70
:1002E200B51DEAE0F0E00895DF01CEDEAAE0B0E05D
:1002F2000C949F016F01D201EAE0F0E00E94C0017C
:100302003F010895D201EAE0F0E00E94C5014F01E9
:100312000895E4E6F0E0AE16BF060895E1E0E2BB20
:10032200D301B2DEA5E0B0E00E949F01E2E0E2BBB1
:10033200D401AADEA5E0B0E00C949F01109639F03A
:100342008AEF90E00197F1F7A8951197C9F7089500
:10035200F195E195F04008950024112490E1AA0F4F
:10036200BB1F001C111C0E1A1F0A18F40E0E1F1EB2
:1003720001C0A1609A9599F7FD01D001089512D0AC
:10038200EBDF0EF4E5DF0895E894B7FF04C0A09513
:10039200B09511966894F7FDDBDFDEDFFD010EF408
:1003A200D7DF0895E894F7FF02C0D2DF6894B7FF61
:1003B20006C0A095B095119600F8039400FA08952E
:00000001FF
