:0A0000000C9441000C9400000C94D5
:10000A0000000C9400000C9400000C9400000C9466
:10001A0000000C9400000C9400000C9400000C9456
:10002A0000000C9400000C9400000C9400000C9446
:10003A0000000C9400000C9400000C9400000C9436
:10004A0000000C9400000C9400001027E8036400E0
:10005A000A000100001000011000010001002D4EED
:10006A00414E00494E46000080C001006A02660007
:10007A0002006E0272000000F894EE27ECBBF1E079
:10008A00FBBFEBBFE5BF8DE0A2E0BB27ED938A95EE
:10009A00E9F780E098E0A0E6ED930197E9F7E4E755
:1000AA00F0E085919591009761F0A591B591059041
:1000BA001590BF01F00105900D920197E1F7FB0140
:1000CA00F0CFEFE5EDBFE8E0EEBFC0E6D2E00C947A
:1000DA007C00AA93E881E06EE7B98BE18A95F1F793
:1000EA00369A349BFECF349AE5B10C946402E0E070
:1000FA00EABBEBBBE7BBE8BBE4BBE5BBE1BBE2BBEE
:10010A00E3BFE2BFECBFEFBDEEBDEDBDECBDE7BDA9
:10011A00E6BDEBBDEABDE9BDE8BDE2BDE5BDE4BDB6
:10012A00E3BDE9BFE5BFE4BFEBB9E8E1EAB9E6E858
:10013A00E0BDE0E0E0BDE3E3E9B9E0E8E8B9E0EE1C
:10014A00E7B9E4EAE6B9E0E0E0BFEDB9E6BFA0E16D
:10015A000E942D020E945B021E2F113311F420E02F
:10016A0030E0123311F421E030E0133311F422E0CD
:10017A0030E0A22FAEDF4E2E5524F201A0E6B2E007
:10018A000E94BB020E94CA04A0916002B09161025F
:10019A008091620290916302E0E0F0E068EC72E420
:1001AA000E945804E0936002F09361026093620235
:1001BA00709363020E94DE04E2E0EA93A4E6B2E0EE
:1001CA000E940101A4E6B2E00E941C0240E050E055
:1001DA004430E0E05E0774F4A4E6B2E0A40FB51F71
:1001EA00AC910E945F02AAE0B0E00E940A034F5F4E
:1001FA005F4FEECFAFCFFFCFBA93AA932497E0E039
:10020A00E883E983EA83EFE3EB831A930A93EB85A6
:10021A00FC85EF3FAFEFFA0739F40E94C002A8E667
:10022A00B0E00E94AE02ADC0EF3FAFE7FA0739F483
:10023A000E94C002A9E6B0E00E94AE02A2C0AC854C
:10024A00AA2362F4E985FA856B857C850E941403EA
:10025A000E94C5020E94CA02EDE2EC93A885A7306B
:10026A0010F0E6E0E8871885E12F1150E03039F008
:10027A000E94D1020E94D6020E94DD02F5CF0E949E
:10028A00E2020E94BA030E94C50210E0E0E0F0E038
:10029A0060E87FE30E94DD020E94E2020E949D0460
:1002AA0088F00E94D1020E94EB020E94DD021F5FC9
:1002BA00173238F00E94C002ADE6B0E00E94AE02EA
:1002CA0060C0EACF103029F40E94CA02E0E3EC933E
:1002DA002DC0E12F1150E03049F10E94D1020E9455
:1002EA00D602A0E0B0E080E09FE30E94BA03DF01FB
:1002FA00CB010E9497020E94DD020E94E2020E9444
:10030A0058040E9447030E2F0E94CA02E02FE05DA4
:10031A00EC93E02FF0E00E94D1020E94BB020E94FF
:10032A000A040E94F2020E94F702D3CFE885E03065
:10033A0021F10E94CA02EEE2EC93E885E150E887D7
:10034A00EF5FD9F00E94F2020E94EB020E94C502FE
:10035A00E985FA856B857C850E9447030E2F0E94EA
:10036A00CA02E02FE05DEC93E02FF0E00E94F20277
:10037A000E94BB020E94F702E0CFAE81BF81E0E09B
:10038A00EC93198108812D960895AA93E5B3EF702D
:10039A00AE2FE881E07FEA2BE5BB8DE08A95F1F785
:1003AA00AA9A8DE08A95F1F7AA988DE08A95F1F7D5
:1003BA000C946402AA93A881E8DFE881E295E883B5
:1003CA00A881E3DF85E88A95F1F70C946402AA9381
:1003DA00E881F0E0E259FD4FE081A981AE0FEADF42
:1003EA007980688022960895A2E00E94FC02ACE01F
:1003FA00E1DFA1E00E94FC02E0E06E2E7E2E08956D
:10040A00AA93A881AA3011F0791450F0E0E0EA9397
:10041A006394A62DDCDFA881AA3011F40C9464023F
:10042A007394A89AA881C6DFA8980C946402BA9318
:10043A00AA931A93A981BA81ED91A983BA831E2F2F
:10044A00E03019F0A12FDCDFF5CF1881239608954B
:10045A00AA93E4B3E06FE4BBA29AA09AA19AAA98DD
:10046A00A898A9989880E881E058E0937002E881FA
:10047A00E054E0937102A4E1B0E00E940A030E94F2
:10048A0002030E9402030E940203A0E27EDF88ECBC
:10049A0090E00197F1F7A8E28DDFA4E08BDFA5E8F1
:1004AA0089DFA6E087DFA0DF0C9464025F9BFECFA2
:1004BA00ECB10895AA935D9BFECFE881ECB9219631
:1004CA0008950E94E3047B816A81F981E88177FBC0
:1004DA00770F67FD7160972F9E5781F078F09831FA
:1004EA0090F4AA27BB27882708948795B795A795DC
:1004FA009A95D1F7EA23FB23682305C0E894772766
:10050A00EE27FF2766276F77769508F4606877F9F4
:10051A00A991B99189919991EA17FB076807790717
:10052A0097FB08950E94E3040E94D4040E94660285
:10053A000E94D90419F40E94CF0409C0E6F70E9468
:10054A00CF04A0E0B0E080E89FE30E94B3032496C2
:10055A000895BA93AA93E991F991A991B991CD0114
:10056A0005900D920020E1F7FC0108950E94C50450
:10057A000E9480030895EE81FF81FA93EA93089519
:10058A00E987FA876B877C870895AE81BF811196C8
:10059A00AE83BF8311970895AA81BB818C819D8107
:1005AA000895EDECFCEC6CEC7DE30E940A040895DE
:1005BA00EA83FB836C837D830895EA81FB816C81E6
:1005CA007D81A985BA858B859C850895E0E0F0E058
:1005DA0060E271E40E940A040895A985BA858B85B0
:1005EA009C8508950E94E8040E94B303C9CF0E9423
:1005FA00DF01A3E0B0E00C940A03A0E30E94CA0161
:10060A0088EC90E00197F1F70895109639F080EDA3
:10061A0097E00197F1F7A8951197C9F708953097D0
:10062A006040704009F070580895552342F45038DC
:10063A0011F4E0FF04C03196691F791F6BF050E88E
:10064A00572711F45F93CFC05F3F31F0660F000C5C
:10065A0057956795752F08955F9300200AF0CFC0CC
:10066A00C8C050E8192E1522880F991F9527550FD3
:10067A00879550E8072E0522660F771F7527550FB5
:10068A0067950895689401C0E8945F93F2DF703823
:10069A0018F07F3F08F4A7C056E1571BAAF45195FA
:1006AA0058300EF4593030F0EFEFFFEF6FEF7FE77D
:1006BA0077F91AC077275523B9F0EE0FFF1F661F87
:1006CA00771F5A95D1F710C07727583028F0EF2FA7
:1006DA00F62F672F5850F9CF552331F07695679545
:1006EA00F795E7955A95D1F700200AF441D15F9121
:1006FA000895689401C0E894309760407040B1F062
:10070A00002426F0772312F4009432D1172E7EE1CA
:10071A00112032F07A95EE0FFF1F661F111CF9CFD8
:10072A00EF2FF62F612D5F938ADF5F9108954F9324
:10073A00AF01FD01DA01AB01BC01CA01402D012C58
:10074A00142E4F910895EA0FFB1F681F0895E09534
:10075A00F0956095EF5FFF4F6F4F08955F9381DFCC
:10076A00903871F150E8152604C05F937ADF90380B
:10077A0039F1703821F1572F591B2BF112F4D7DFB9
:10078A00FACF583118F0AA27BB278827583028F003
:10079A00AB2FB82F88275850F9CF552329F08695C3
:1007AA00B795A7955A95D9F7502D512572F0CBDFF9
:1007BA0038F46795F795E795739513F420C0B7DF7A
:1007CA003EDF5F910895D8F7FBCFEA1BFB0B680B5E
:1007DA0051F010F40094BBDF662392F3EE0FFF1F73
:1007EA00661F7A95CBF7EE27FF27662777275F9153
:1007FA000895EFEFFFEF6FE77FEF5F910895EFEF57
:10080A00FFEF6FE77FE75F9108955F932ADF703804
:10081A0051F3903841F301240894791F23F41CF30F
:10082A0000203AF3ECCF0F921F932F933F934F93ED
:10083A00112722279927689FA0018F9F302D410DEC
:10084A00591F6B9F300D411D591F8E9F27D0BF9F87
:10085A0025D06A9F23D0BE9F1DD0AF9F1BD0AE9FCD
:10086A00110D291F391F491F591FE32FF42F652F17
:10087A00522F4F913F912F911F910F9066232AF08B
:10088A00550FEE1FFF1F661F02C073954BF2CDDE98
:10089A005F910895100D211D391F02C0200D311DD1
:1008AA00491F591F08955F93DCDE703821F4112027
:1008BA000AF49FCFA4CF903809F495CF0124089465
:1008CA00970B1BF4D4F30020F3CF792F1F932F93A8
:1008DA003F934F9311241127222733274427552763
:1008EA0090E2AE17BF078607410730F0AE1BBF0B79
:1008FA00860B410B089401C08894551F221F331F91
:10090A00111CAA1FBB1F881F441F9A9551F7F90192
:10091A00612D4F913F912F911F91662332F0550F10
:10092A00EE1FFF1F661F7A9543F27FDE5F910895DF
:10093A0099239AF0772342F0971748F029F4AE17D3
:10094A00BF07860720F031F0989488940895989408
:10095A00089408951894889408957723C2F79717EE
:10096A0098F3A9F7EA17FB07680788F399F3ECCF1E
:10097A00F09560957095E195FF4F6F4F7F4F089501
:10098A006F2F660F660B762F0895ED93FD936D9387
:10099A007C930895E881F9816A817B810895A88111
:1009AA00B9818A819B810895E883F9836A837B836D
:1009BA0008957A936A93FA93EA9308959A938A9395
:1009CA00BA93AA930895182E862F612D192E972F60
:1009DA00712D1B2EBF2FF12D1A2EAE2FE12D08954A
:00000001FF
