:0C0000000C9438000C9400000C940000DC
:10000C000C9400000C9400000C9400000C94000064
:10001C000C9400000C9400000C9400000C94000054
:10002C000C9400000C9400000C9400000C94000044
:10003C000C9400000C9400000C9400000C94000034
:10004C000C9400000C9400001027E80364000A00D4
:10005C000100001000011000010080C002006002CD
:10006C0066000000F894EE27ECBBF1E0FBBFEBBFA1
:10007C00E5BF8DE0A2E0BB27ED938A95E9F780E020
:10008C0098E0A0E6ED930197E9F7E8E6F0E08591BA
:10009C009591009761F0A591B59105901590BF01D0
:1000AC00F00105900D920197E1F7FB01F0CFEFE520
:1000BC00EDBFE8E0EEBFC0E6D2E00C94650000E0D6
:1000CC0010E0E0E0EABBEBBBE7BBE8BBE4BBE5BBA5
:1000DC00E1BBE2BBE3BFE2BFECBFEFBDEEBDEDBDEC
:1000EC00ECBDE7BDE6BDEBBDEABDE9BDE8BDE2BDDB
:1000FC00E5BDE4BDE3BDE9BFE5BFE4BFEBB9E8E1B5
:10010C00EAB9E6E8E0BDE0E0E0BDE3E3E9B9E0E848
:10011C00E8B9E0E0E0BFE6B9EDB9E6BFA0E183D015
:10012C00E1E0E7BBE1E0E8BBB19B05C059D0A1E33E
:10013C000E944B0115C00E945201B29B05C050D0C9
:10014C00A2E30E944B010CC00E945201B39B05C05C
:10015C0047D0A3E30E944B0103C00E945201E2CF9F
:10016C000E9447015E2EA52D47D00F5F1F4F043014
:10017C00E0E01E071CF000E010E001C0F1CFD2CF90
:10018C00FFCFAA93EBB3EF70AE2FE881E07FEA2BA1
:10019C00EBBB8DE08A95F1F7DA9A8DE08A95F1F751
:1001AC00DA988DE08A95F1F70C945001AA93A88106
:1001BC00E8DFE881E295E883A881E3DF85E88A95AA
:1001CC00F1F70C945001AA93E881F0E0E05AFD4F4E
:1001DC00E081A981AE0FEADF4980788022960895EC
:1001EC00A2E00E945601ACE0E1DFA1E00E945601C2
:1001FC00E0E07E2E4E2E0895AA93A881AA3011F02D
:10020C00461450F0E0E0EA937394A72DDCDFA8814C
:10021C00AA3011F40C9450014394D89AA881C6DFEB
:10022C00D8980C945001AA93EAB3E06FEABBD29A27
:10023C00D09AD19ADA98D898D9986880E881E05801
:10024C00E0936202E881E054E0936302A4E1B0E041
:10025C000E9464010E945C010E945C010E945C018E
:10026C00A0E28FDF88EC90E00197F1F7A8E29EDF27
:10027C00A4E09CDFA5E89ADFA6E098DFB1DF0C9440
:10028C0050015F9BFECFECB10895AA935D9BFECF0E
:10029C00E881ECB921960895AAE0B0E00C946401D1
:1002AC000E94DC00A3E0B0E00C946401A0E30E9487
:1002BC00C70088EC90E00197F1F70895109639F09B
:1002CC0080ED97E00197F1F7A8951197C9F708957C
:00000001FF
