:100000000C942A000C9400000C9400000C94000046
:100010000C9400000C9400000C9400000C94000060
:100020000C9400000C9400000C9400000C94000050
:100030000C9400000C9400000C9400000C94000040
:100040000C9400000C9400000C9400000C94000030
:100050000C940000F894EE27ECBBF1E0FBBFEBBF83
:10006000E5BF8DE0A2E0BB27ED938A95E9F780E03C
:1000700098E0A0E6ED930197E9F7EFE5EDBFE8E042
:10008000EEBFC0E6D2E00C944500E0E0EABBEBBB7B
:10009000E7BBE8BBE4BBE5BBE1BBE2BBE3BFE2BF60
:1000A000ECBFEFBDEEBDEDBDECBDE7BDE6BDEBBD0C
:1000B000EABDE9BDE8BDE2BDE5BDE4BDE3BDE9BF24
:1000C000E5BFE4BFEAB9E0E8E8B9E0E0E0BFE6B9DF
:1000D000EDB9E6BFEFEFEABBE7BB2297E0E0E883CC
:1000E000E983E883E983A881B981A436E0E0BE070B
:1000F00084F43AD0E8EFEBBBE7ED3BD035D0E4E257
:10010000EBBBEFEE36D0E881F9813196E883F983D5
:10011000EACF2AD0A8EEB3E00E94BE00E0E0E88378
:10012000E983A881B981A436E0E0BE07ACF41CD015
:10013000E8EAEBBBE7EC1DD017D0E0E4EBBBE7EF60
:1001400018D012D0E0E1EBBBEFED13D0E881F981DC
:100150003196E883F983E5CF07D0A8EEB3E00E949B
:10016000BE002296BACFFFCFE0E0EBBBEFEFE8BBDB
:100170000895E8BBAAE0B0E00C94BE00109639F0F8
:100180008AEF90E00197F1F7A8951197C9F70895C4
:00000001FF
