:0A0000000C9444000C9400000C94D2
:10000A0000000C9400000C9400000C9400000C9466
:10001A0000000C9400000C9400000C9400000C9456
:10002A0000000C9400000C9400000C9400000C9446
:10003A0000000C9400000C9400000C9400000C9436
:10004A0000000C9400000C9400002D002B003D00D1
:10005A0001002D4E414E00494E46000080C002006C
:10006A006002540002006202560002006402580054
:10007A0001006A025A0002006E0266000000F8944B
:10008A00EE27ECBBF1E0FBBFEBBFE5BF8DE0A2E0E2
:10009A00BB27ED938A95E9F780E098E0A0E6ED9317
:1000AA000197E9F7E8E6F0E085919591009761F00C
:1000BA00A591B59105901590BF01F00105900D929B
:1000CA000197E1F7FB01F0CFEFE5EDBFE8E0EEBF06
:1000DA00C0E6D2E00C948100BA93AA93E881F98130
:1000EA00FA93EA93A6E6B2E00E946602A6E6B2E0B6
:1000FA000E9432030C94C302E0E0EABBEBBBE7BB0D
:10010A00E8BBE4BBE5BBE1BBE2BBE3BFE2BFECBFDC
:10011A00EFBDEEBDEDBDECBDE7BDE6BDEBBDEABD95
:10012A00E9BDE8BDE2BDE5BDE4BDE3BDE9BFE5BFAC
:10013A00E4BFEAB9E0E8E8B9E0E0E0BFE6B9EDB962
:10014A00E6BFA0E10E9404030E94C502E0E00E940B
:10015A004703E0E0E7BBEFE0EABBEFEFFFEF2F0179
:10016A003F014F01CC24DD24E1E0F0E05F01E1E052
:10017A00EBBBB19B1BC00E944B0329F4E9E0F0E002
:10018A002F01D20112C00E94500329F4E9E0F0E0E5
:10019A003F01D3010AC00E94550329F4E9E0F0E0C7
:1001AA004F01D40102C0A9E0B0E096DF0E945A03D1
:1001BA00B29B1BC00E944B0329F4E8E0F0E02F0138
:1001CA00D20112C00E94500329F4E8E0F0E03F0196
:1001DA00D3010AC00E94550329F4E8E0F0E04F0178
:1001EA00D40102C0A8E0B0E077DF0E945A03B39BB3
:1001FA001BC00E944B0329F4E7E0F0E02F01D20173
:10020A0012C00E94500329F4E7E0F0E03F01D30155
:10021A000AC00E94550329F4E7E0F0E04F01D40137
:10022A0002C0A7E0B0E058DF0E945A03E2E0EBBB4D
:10023A00B19B1BC00E944B0329F4E6E0F0E02F01BA
:10024A00D20112C00E94500329F4E6E0F0E03F0117
:10025A00D3010AC00E94550329F4E6E0F0E04F01F9
:10026A00D40102C0A6E0B0E037DF0E945A03B29B75
:10027A001BC00E944B0329F4E5E0F0E02F01D201F4
:10028A0012C00E94500329F4E5E0F0E03F01D301D7
:10029A000AC00E94550329F4E5E0F0E04F01D401B9
:1002AA0002C0A5E0B0E018DF0E945A03B39B1BC04E
:1002BA000E944B0329F4E4E0F0E02F01D20112C0BE
:1002CA000E94500329F4E4E0F0E03F01D3010AC0A0
:1002DA000E94550329F4E4E0F0E04F01D40102C082
:1002EA00A4E0B0E0F9DE0E945A03E4E0EBBBB09B65
:1002FA0006C0AA24BB24A0E6B2E00E9432030E94F0
:10030A005A03B19B1BC00E944B0329F4E3E0F0E0BF
:10031A002F01D20112C00E94500329F4E3E0F0E059
:10032A003F01D3010AC00E94550329F4E3E0F0E03B
:10033A004F01D40102C0A3E0B0E0CEDE0E945A030E
:10034A00B29B1BC00E944B0329F4E2E0F0E02F01AC
:10035A00D20112C00E94500329F4E2E0F0E03F010A
:10036A00D3010AC00E94550329F4E2E0F0E04F01EC
:10037A00D40102C0A2E0B0E0AFDE0E945A03B39BF0
:10038A001BC00E944B0329F4E1E0F0E02F01D201E7
:10039A0012C00E94500329F4E1E0F0E03F01D301CA
:1003AA000AC00E94550329F4E1E0F0E04F01D401AC
:1003BA0002C0A1E0B0E090DE0E945A03E8E0EBBB85
:1003CA00B09B07C0E1E0F0E05F01A2E6B2E00E9464
:1003DA0032030E945A03B19B35C0A4E6B2E00E94E0
:1003EA00F302E0916802F09169023296E0936802A2
:1003FA00F0936902E09168020E944703E1E0F0E0AD
:10040A00EA15FB0571F40E94550321F4F301E40D8A
:10041A00F51D04C00E945E03E80DF91D6F010E94DC
:10042A0066030A2C0B2871F40E94550321F4F20189
:10043A00E619F70904C00E945E03E819F9096F0179
:10044A000E9466030E945A03B29B18C00E944B0383
:10045A0021F444245524D20110C00E94500321F4EF
:10046A0066247724D30109C00E94550321F4882405
:10047A009924D40102C0A0E0B0E02EDE0E945A0303
:10048A00B39B1BC00E944B0319F0EFEFFFEF2F0144
:10049A000E94500319F0EFEFFFEF3F010E9455034E
:1004AA0019F0EFEFFFEF4F010E94C502E0E0E09381
:1004BA006802E09369020E9447030E945A0357CEDA
:1004CA00FFCFBA93AA93A991B991E991F99130967C
:1004DA002AF4E095F09531966DE26D93E89480E107
:1004EA0097E20DD088EE93E00AD084E6992707D0E8
:1004FA008AE005D06E2F10D066276C930895662780
:10050A00E817F90720F06395E81BF90BC9F766238A
:10051A0011F416F008956894605D6D930895AA9396
:10052A00E5B3EF70AE2FE881E07FEA2BE5BB82E00E
:10053A008A95F1F7AA9A82E08A95F1F7AA9882E059
:10054A008A95F1F788C0AA93A881E9DFE881E29544
:10055A00E883A881E4DF81E18A95F1F77CC0AA9358
:10056A00E881F0E0E259FD4FE081A981AE0FEBDFAF
:10057A00E981E0937202E881E0937302229608957A
:10058A00A2E00E946F03ACE0DEDFA1E00E946F03ED
:10059A00E0E0E0937302E09372020895AA93A881BF
:1005AA00AA3031F0E0917402A0917202AE1760F0A5
:1005BA00E0E0EA93A0917302AF5FA0937302CFDFEA
:1005CA00A881AA3009F447C0E0917202EF5FE09374
:1005DA007202A89AA881B7DFA8983DC0BA93AA93D5
:1005EA001A93A981BA81ED91A983BA831E2FE030AB
:1005FA0019F0A12FD3DFF5CF188123960895AA9376
:10060A00E4B3E06FE4BBA29AA09AA19AAA98A89828
:10061A00A998E881E0937402E058E0937002E881B7
:10062A00E054E0937102A4E1B0E00E947C030E94CE
:10063A0075030E9475030E947503A0E270DF81E2D0
:10064A008A95F1F7A8E27FDFA4E07DDFA5E87BDFEA
:10065A00A6E079DF95DF219608950E94F302A8EEBD
:10066A00B3E00E947C03E0916802F091690232963D
:10067A00E0936802F0936902E0916802EA93A0E0CD
:10068A000C94B402EA93A0E00C94B402EFEFFFEFEB
:10069A00E415F5050895EFEFFFEFE615F705089560
:1006AA00EFEFFFEFE815F9050895AAE0B0E00C9422
:1006BA007C03F201AAE0B0E00E949203E60DF71D66
:1006CA000895DA92CA92A7E6B2E00E946602A7E605
:1006DA00B2E0C3CF0E94A802A3E0B0E00C947C036E
:1006EA00A0E30E94940281E28A95F1F70895109698
:1006FA0039F08AEF90E00197F1F7A8951197C9F7B9
:10070A000895F195E195F0400895FA9FF02DEB9F39
:10071A00F00DEA9FE02DF10D089504D0F6DF0EF4F6
:10072A00F0DF0895E894F7FF02C0EBDF6894B7FFA3
:10073A0006C0A095B095119600F8039400FA0895A2
:00000001FF
