:040000000C942A0032
:100004000C9445000C9454000C9463000C94000070
:100014000C9400000C9400000C9400000C9400005C
:100024000C9400000C9400000C9400000C9400004C
:100034000C9400000C9400000C9400000C9400003C
:100044000C9400000C9400000C9400000C9400002C
:10005400F894EE27ECBBF1E0FBBFEBBFE5BF8DE00E
:10006400A2E0BB27ED938A95E9F780E098E0A0E64B
:10007400ED930197E9F7EFE5EDBFE8E0EEBFC0E6E9
:10008400D2E00C947F006ED0E5E0F0E04E165F06FF
:1000940044F4A89877D0A89A75D0F20131962F012C
:1000A400F3CF1DC05FD0EAE0F0E04E165F0644F4E3
:1000B400A99868D0A99A66D0F20131962F01F3CF9E
:1000C4000EC050D0EFE0F0E04E165F0644F4AA985C
:1000D40059D0AA9A57D0F20131962F01F3CFE99162
:1000E400EFBFF991E991B991A99199918991799188
:1000F4006991F990199009901895E0E0EABBEBBB7F
:10010400E7BBE8BBE7E0E4BBE0E0E5BBE1BBE2BBA7
:10011400E3BFE2BFECBFEFBDEEBDEDBDECBDE7BD9F
:10012400E6BDEBBDEABDE9BDE8BDE2BDE5BDE4BDAC
:10013400E3BDE9BFEBB7E06EEBBFEAE0E5BFE0E0AB
:10014400E4BFE0EEEABFE0E0EAB9E0E8E8B9E0E005
:10015400E0BFE6B9EDB9E6BF7894A898A998AA9843
:10016400FCCFFFCF0A921A92FA926A937A938A93F7
:100174009A93AA93BA93EA93FA93EFB7EA9344242F
:1001840055240895A4EFB1E00C94C800109639F0FA
:100194008AEF90E00197F1F7A8951197C9F70895B0
:00000001FF
